{
  "contractName": "KittyMarketPlace",
  "abi": [
    {
      "inputs": [
        {
          "internalType": "address",
          "name": "_kittyContractAddress",
          "type": "address"
        }
      ],
      "payable": false,
      "stateMutability": "nonpayable",
      "type": "constructor"
    },
    {
      "anonymous": false,
      "inputs": [
        {
          "indexed": false,
          "internalType": "string",
          "name": "TxType",
          "type": "string"
        },
        {
          "indexed": false,
          "internalType": "address",
          "name": "owner",
          "type": "address"
        },
        {
          "indexed": false,
          "internalType": "uint256",
          "name": "tokenId",
          "type": "uint256"
        }
      ],
      "name": "marketTransaction",
      "type": "event"
    },
    {
      "constant": true,
      "inputs": [],
      "name": "owner",
      "outputs": [
        {
          "internalType": "address",
          "name": "",
          "type": "address"
        }
      ],
      "payable": false,
      "stateMutability": "view",
      "type": "function"
    },
    {
      "constant": false,
      "inputs": [
        {
          "internalType": "address",
          "name": "_kittyContractAddress",
          "type": "address"
        }
      ],
      "name": "setKittyContract",
      "outputs": [],
      "payable": false,
      "stateMutability": "nonpayable",
      "type": "function"
    },
    {
      "constant": true,
      "inputs": [
        {
          "internalType": "uint256",
          "name": "_tokenId",
          "type": "uint256"
        }
      ],
      "name": "getOffer",
      "outputs": [
        {
          "internalType": "address",
          "name": "seller",
          "type": "address"
        },
        {
          "internalType": "uint256",
          "name": "price",
          "type": "uint256"
        },
        {
          "internalType": "uint256",
          "name": "index",
          "type": "uint256"
        },
        {
          "internalType": "uint256",
          "name": "tokenId",
          "type": "uint256"
        },
        {
          "internalType": "bool",
          "name": "active",
          "type": "bool"
        }
      ],
      "payable": false,
      "stateMutability": "view",
      "type": "function"
    },
    {
      "constant": true,
      "inputs": [],
      "name": "getAllTokenOnSale",
      "outputs": [
        {
          "internalType": "uint256[]",
          "name": "listOfOffers",
          "type": "uint256[]"
        }
      ],
      "payable": false,
      "stateMutability": "view",
      "type": "function"
    },
    {
      "constant": true,
      "inputs": [
        {
          "internalType": "address",
          "name": "_address",
          "type": "address"
        },
        {
          "internalType": "uint256",
          "name": "_tokenId",
          "type": "uint256"
        }
      ],
      "name": "_ownsKitty",
      "outputs": [
        {
          "internalType": "bool",
          "name": "",
          "type": "bool"
        }
      ],
      "payable": false,
      "stateMutability": "view",
      "type": "function"
    },
    {
      "constant": false,
      "inputs": [
        {
          "internalType": "uint256",
          "name": "_price",
          "type": "uint256"
        },
        {
          "internalType": "uint256",
          "name": "_tokenId",
          "type": "uint256"
        }
      ],
      "name": "setOffer",
      "outputs": [],
      "payable": false,
      "stateMutability": "nonpayable",
      "type": "function"
    },
    {
      "constant": false,
      "inputs": [
        {
          "internalType": "uint256",
          "name": "_tokenId",
          "type": "uint256"
        }
      ],
      "name": "removeOffer",
      "outputs": [],
      "payable": false,
      "stateMutability": "nonpayable",
      "type": "function"
    },
    {
      "constant": false,
      "inputs": [
        {
          "internalType": "uint256",
          "name": "_tokenId",
          "type": "uint256"
        }
      ],
      "name": "buyKitty",
      "outputs": [],
      "payable": true,
      "stateMutability": "payable",
      "type": "function"
    }
  ],
  "bytecode": "0x608060405234801561001057600080fd5b506040516114d03803806114d08339818101604052602081101561003357600080fd5b8101908080519060200190929190505050336000806101000a81548173ffffffffffffffffffffffffffffffffffffffff021916908373ffffffffffffffffffffffffffffffffffffffff1602179055506100938161009960201b60201c565b50610136565b6000809054906101000a900473ffffffffffffffffffffffffffffffffffffffff1673ffffffffffffffffffffffffffffffffffffffff163373ffffffffffffffffffffffffffffffffffffffff16146100f257600080fd5b80600160006101000a81548173ffffffffffffffffffffffffffffffffffffffff021916908373ffffffffffffffffffffffffffffffffffffffff16021790555050565b61138b806101456000396000f3fe60806040526004361061007b5760003560e01c8063922dd86f1161004e578063922dd86f1461022f578063941b055b146102a257806395a0f9c7146102e7578063ae5310f6146103225761007b565b80634579268a1461008057806349b3709f1461011b57806362b7f94e146101875780638da5cb5b146101d8575b600080fd5b34801561008c57600080fd5b506100b9600480360360208110156100a357600080fd5b8101908080359060200190929190505050610350565b604051808673ffffffffffffffffffffffffffffffffffffffff1673ffffffffffffffffffffffffffffffffffffffff168152602001858152602001848152602001838152602001821515151581526020019550505050505060405180910390f35b34801561012757600080fd5b5061013061043f565b6040518080602001828103825283818151815260200191508051906020019060200280838360005b83811015610173578082015181840152602081019050610158565b505050509050019250505060405180910390f35b34801561019357600080fd5b506101d6600480360360208110156101aa57600080fd5b81019080803573ffffffffffffffffffffffffffffffffffffffff169060200190929190505050610556565b005b3480156101e457600080fd5b506101ed6105f3565b604051808273ffffffffffffffffffffffffffffffffffffffff1673ffffffffffffffffffffffffffffffffffffffff16815260200191505060405180910390f35b34801561023b57600080fd5b506102886004803603604081101561025257600080fd5b81019080803573ffffffffffffffffffffffffffffffffffffffff16906020019092919080359060200190929190505050610618565b604051808215151515815260200191505060405180910390f35b3480156102ae57600080fd5b506102e5600480360360408110156102c557600080fd5b8101908080359060200190929190803590602001909291905050506106fe565b005b3480156102f357600080fd5b506103206004803603602081101561030a57600080fd5b8101908080359060200190929190505050610ba7565b005b61034e6004803603602081101561033857600080fd5b8101908080359060200190929190505050610e32565b005b60008060008060006103606112a1565b600360008881526020019081526020016000206040518060a00160405290816000820160009054906101000a900473ffffffffffffffffffffffffffffffffffffffff1673ffffffffffffffffffffffffffffffffffffffff1673ffffffffffffffffffffffffffffffffffffffff1681526020016001820154815260200160028201548152602001600382015481526020016004820160009054906101000a900460ff161515151581525050905080600001518160200151826040015183606001518460800151849450955095509550955095505091939590929450565b606060006002805490509050600081141561048d5760006040519080825280602002602001820160405280156104845781602001602082028038833980820191505090505b50915050610553565b6060816040519080825280602002602001820160405280156104be5781602001602082028038833980820191505090505b50905060008090505b8281101561054c5760011515600282815481106104e057fe5b906000526020600020906005020160040160009054906101000a900460ff161515141561053f576002818154811061051457fe5b90600052602060002090600502016003015482828151811061053257fe5b6020026020010181815250505b80806001019150506104c7565b8193505050505b90565b6000809054906101000a900473ffffffffffffffffffffffffffffffffffffffff1673ffffffffffffffffffffffffffffffffffffffff163373ffffffffffffffffffffffffffffffffffffffff16146105af57600080fd5b80600160006101000a81548173ffffffffffffffffffffffffffffffffffffffff021916908373ffffffffffffffffffffffffffffffffffffffff16021790555050565b6000809054906101000a900473ffffffffffffffffffffffffffffffffffffffff1681565b60008273ffffffffffffffffffffffffffffffffffffffff16600160009054906101000a900473ffffffffffffffffffffffffffffffffffffffff1673ffffffffffffffffffffffffffffffffffffffff16636352211e846040518263ffffffff1660e01b81526004018082815260200191505060206040518083038186803b1580156106a457600080fd5b505afa1580156106b8573d6000803e3d6000fd5b505050506040513d60208110156106ce57600080fd5b810190808051906020019092919050505073ffffffffffffffffffffffffffffffffffffffff1614905092915050565b6107083382610618565b61075d576040517f08c379a00000000000000000000000000000000000000000000000000000000081526004018080602001828103825260228152602001806112e96022913960400191505060405180910390fd5b600015156003600083815260200190815260200160002060040160009054906101000a900460ff161515146107fa576040517f08c379a00000000000000000000000000000000000000000000000000000000081526004018080602001828103825260178152602001807f596f752063616e27742073656c6c20697420747769636500000000000000000081525060200191505060405180910390fd5b600160009054906101000a900473ffffffffffffffffffffffffffffffffffffffff1673ffffffffffffffffffffffffffffffffffffffff1663e985e9c533306040518363ffffffff1660e01b8152600401808373ffffffffffffffffffffffffffffffffffffffff1673ffffffffffffffffffffffffffffffffffffffff1681526020018273ffffffffffffffffffffffffffffffffffffffff1673ffffffffffffffffffffffffffffffffffffffff1681526020019250505060206040518083038186803b1580156108cd57600080fd5b505afa1580156108e1573d6000803e3d6000fd5b505050506040513d60208110156108f757600080fd5b810190808051906020019092919050505061095d576040517f08c379a000000000000000000000000000000000000000000000000000000000815260040180806020018281038252602981526020018061132e6029913960400191505060405180910390fd5b6109656112a1565b6040518060a001604052803373ffffffffffffffffffffffffffffffffffffffff1681526020018481526020016002805490508152602001838152602001600115158152509050806003600084815260200190815260200160002060008201518160000160006101000a81548173ffffffffffffffffffffffffffffffffffffffff021916908373ffffffffffffffffffffffffffffffffffffffff16021790555060208201518160010155604082015181600201556060820151816003015560808201518160040160006101000a81548160ff0219169083151502179055509050506002819080600181540180825580915050906001820390600052602060002090600502016000909192909190915060008201518160000160006101000a81548173ffffffffffffffffffffffffffffffffffffffff021916908373ffffffffffffffffffffffffffffffffffffffff16021790555060208201518160010155604082015181600201556060820151816003015560808201518160040160006101000a81548160ff0219169083151502179055505050507f5746c114cb70c22238724c695eb913fe5512b353d7583b35222316c37d961845338360405180806020018473ffffffffffffffffffffffffffffffffffffffff1673ffffffffffffffffffffffffffffffffffffffff1681526020018381526020018281038252600c8152602001807f437265617465206f666665720000000000000000000000000000000000000000815250602001935050505060405180910390a1505050565b610baf6112a1565b600360008381526020019081526020016000206040518060a00160405290816000820160009054906101000a900473ffffffffffffffffffffffffffffffffffffffff1673ffffffffffffffffffffffffffffffffffffffff1673ffffffffffffffffffffffffffffffffffffffff1681526020016001820154815260200160028201548152602001600382015481526020016004820160009054906101000a900460ff16151515158152505090503373ffffffffffffffffffffffffffffffffffffffff16816000015173ffffffffffffffffffffffffffffffffffffffff1614610ce6576040517f08c379a000000000000000000000000000000000000000000000000000000000815260040180806020018281038252602381526020018061130b6023913960400191505060405180910390fd5b60036000838152602001908152602001600020600080820160006101000a81549073ffffffffffffffffffffffffffffffffffffffff02191690556001820160009055600282016000905560038201600090556004820160006101000a81549060ff0219169055505060006002826040015181548110610d6257fe5b906000526020600020906005020160040160006101000a81548160ff0219169083151502179055507f5746c114cb70c22238724c695eb913fe5512b353d7583b35222316c37d961845338360405180806020018473ffffffffffffffffffffffffffffffffffffffff1673ffffffffffffffffffffffffffffffffffffffff1681526020018381526020018281038252600c8152602001807f52656d6f7665206f666665720000000000000000000000000000000000000000815250602001935050505060405180910390a15050565b610e3a6112a1565b600360008381526020019081526020016000206040518060a00160405290816000820160009054906101000a900473ffffffffffffffffffffffffffffffffffffffff1673ffffffffffffffffffffffffffffffffffffffff1673ffffffffffffffffffffffffffffffffffffffff1681526020016001820154815260200160028201548152602001600382015481526020016004820160009054906101000a900460ff161515151581525050905080602001513414610f62576040517f08c379a00000000000000000000000000000000000000000000000000000000081526004018080602001828103825260158152602001807f54686520707269636520697320696e636f72656374000000000000000000000081525060200191505060405180910390fd5b600115156003600084815260200190815260200160002060040160009054906101000a900460ff16151514610fff576040517f08c379a00000000000000000000000000000000000000000000000000000000081526004018080602001828103825260178152602001807f4e6f20616374697665206f726465722070726573656e7400000000000000000081525060200191505060405180910390fd5b60036000838152602001908152602001600020600080820160006101000a81549073ffffffffffffffffffffffffffffffffffffffff02191690556001820160009055600282016000905560038201600090556004820160006101000a81549060ff021916905550506000600282604001518154811061107b57fe5b906000526020600020906005020160040160006101000a81548160ff02191690831515021790555060008160200151111561110057806000015173ffffffffffffffffffffffffffffffffffffffff166108fc82602001519081150290604051600060405180830381858888f193505050501580156110fe573d6000803e3d6000fd5b505b600160009054906101000a900473ffffffffffffffffffffffffffffffffffffffff1673ffffffffffffffffffffffffffffffffffffffff166323b872dd826000015133856040518463ffffffff1660e01b8152600401808473ffffffffffffffffffffffffffffffffffffffff1673ffffffffffffffffffffffffffffffffffffffff1681526020018373ffffffffffffffffffffffffffffffffffffffff1673ffffffffffffffffffffffffffffffffffffffff1681526020018281526020019350505050600060405180830381600087803b1580156111e157600080fd5b505af11580156111f5573d6000803e3d6000fd5b505050507f5746c114cb70c22238724c695eb913fe5512b353d7583b35222316c37d961845338360405180806020018473ffffffffffffffffffffffffffffffffffffffff1673ffffffffffffffffffffffffffffffffffffffff168152602001838152602001828103825260038152602001807f4275790000000000000000000000000000000000000000000000000000000000815250602001935050505060405180910390a15050565b6040518060a00160405280600073ffffffffffffffffffffffffffffffffffffffff168152602001600081526020016000815260200160008152602001600015158152509056fe596f7520617265206e6f20746865206f776e6572206f662074686174206b69747479596f7520617265206e6f7420746865206f776e6572206f662074686174206b69747479436f6e7472616374206e6565647320746f20626520616e20617070726f766564206f70657261746f72a265627a7a723158200c07bb4cbfd9e1995312b734f2675f5fe760351f101e99e1e02e3ab06c8ba80a64736f6c63430005100032",
  "source": "pragma solidity ^0.5.12;\r\n\r\nimport \"./Kittycontract.sol\";\r\nimport \"./Ownable.sol\";\r\nimport \"./IKittyMarketplace.sol\";\r\n\r\ncontract KittyMarketPlace is Ownable {\r\n    Kittycontract private _kittyContract;\r\n\r\n    struct Offer {\r\n        address payable seller;\r\n        uint256 price;\r\n        uint256 index;\r\n        uint256 tokenId;\r\n        bool active;\r\n    }\r\n    Offer[] offers;\r\n    mapping(uint256 => Offer) tokenIdToOffer;\r\n\r\n    event marketTransaction(string TxType, address owner, uint256 tokenId);\r\n\r\n    function setKittyContract(address _kittyContractAddress) public onlyOwner {\r\n        _kittyContract = Kittycontract(_kittyContractAddress);\r\n    }\r\n\r\n    constructor(address _kittyContractAddress) public {\r\n        setKittyContract(_kittyContractAddress);\r\n    }\r\n\r\n    function getOffer(uint256 _tokenId)\r\n        external\r\n        view\r\n        returns (\r\n            address seller,\r\n            uint256 price,\r\n            uint256 index,\r\n            uint256 tokenId,\r\n            bool active\r\n        )\r\n    {\r\n        Offer memory offer = tokenIdToOffer[_tokenId];\r\n        return (\r\n            offer.seller,\r\n            offer.price,\r\n            offer.index,\r\n            offer.tokenId,\r\n            offer.active\r\n        );\r\n    }\r\n\r\n    function getAllTokenOnSale()\r\n        external\r\n        view\r\n        returns (uint256[] memory listOfOffers)\r\n    {\r\n        uint256 totalOffers = offers.length;\r\n\r\n        if (totalOffers == 0) {\r\n            return new uint256[](0);\r\n        } else {\r\n            uint256[] memory result = new uint256[](totalOffers);\r\n\r\n            uint256 offerId;\r\n\r\n            for (offerId = 0; offerId < totalOffers; offerId++) {\r\n                if (offers[offerId].active == true) {\r\n                    result[offerId] = offers[offerId].tokenId;\r\n                }\r\n            }\r\n            return result;\r\n        }\r\n    }\r\n\r\n    function _ownsKitty(address _address, uint256 _tokenId)\r\n        public\r\n        view\r\n        returns (bool)\r\n    {\r\n        return (_kittyContract.ownerOf(_tokenId) == _address);\r\n    }\r\n\r\n    function setOffer(uint256 _price, uint256 _tokenId) public {\r\n        require(\r\n            _ownsKitty(msg.sender, _tokenId),\r\n            \"You are no the owner of that kitty\"\r\n        );\r\n        require(\r\n            tokenIdToOffer[_tokenId].active == false,\r\n            \"You can't sell it twice\"\r\n        );\r\n        require(\r\n            _kittyContract.isApprovedForAll(msg.sender, address(this)),\r\n            \"Contract needs to be an approved operator\"\r\n        );\r\n\r\n        Offer memory _offer = Offer({\r\n            seller: msg.sender,\r\n            price: _price,\r\n            active: true,\r\n            tokenId: _tokenId,\r\n            index: offers.length\r\n        });\r\n\r\n        tokenIdToOffer[_tokenId] = _offer;\r\n        offers.push(_offer);\r\n        emit marketTransaction(\"Create offer\", msg.sender, _tokenId);\r\n    }\r\n\r\n    function removeOffer(uint256 _tokenId) public {\r\n        Offer memory offer = tokenIdToOffer[_tokenId];\r\n        require(\r\n            offer.seller == msg.sender,\r\n            \"You are not the owner of that kitty\"\r\n        );\r\n        delete tokenIdToOffer[_tokenId];\r\n        offers[offer.index].active = false;\r\n        emit marketTransaction(\"Remove offer\", msg.sender, _tokenId);\r\n    }\r\n\r\n    function buyKitty(uint256 _tokenId) external payable {\r\n        Offer memory offer = tokenIdToOffer[_tokenId];\r\n        require(msg.value == offer.price, \"The price is incorect\");\r\n        require(\r\n            tokenIdToOffer[_tokenId].active == true,\r\n            \"No active order present\"\r\n        );\r\n        // IMPORTANT: Delete the kitty from the mapping before paying out to prevent reentry attacks\r\n\r\n        delete tokenIdToOffer[_tokenId];\r\n        offers[offer.index].active = false;\r\n\r\n        // Transfer the funds to the seller\r\n        //TODO: make this logic pull instead of push. If I want. It's not necessary\r\n        if (offer.price > 0) {\r\n            offer.seller.transfer(offer.price);\r\n        }\r\n\r\n        //Transfer the ownership of the kitty\r\n        _kittyContract.transferFrom(offer.seller, msg.sender, _tokenId);\r\n\r\n        emit marketTransaction(\"Buy\", msg.sender, _tokenId);\r\n    }\r\n}\r\n",
  "sourcePath": "C:\\Users\\Owner\\Desktop\\cryptycats\\Crypto-Kitties\\contracts\\KittyMarketplace.sol",
  "compiler": {
    "name": "solc",
    "version": "0.5.16+commit.9c3226ce.Emscripten.clang"
  },
  "schemaVersion": "3.2.0",
  "updatedAt": "2021-08-22T02:44:44.099Z",
  "devdoc": {
    "methods": {}
  },
  "userdoc": {
    "methods": {}
  }
}