{
  "contractName": "Kittycontract",
  "abi": [
    {
      "inputs": [],
      "payable": false,
      "stateMutability": "nonpayable",
      "type": "constructor"
    },
    {
      "anonymous": false,
      "inputs": [
        {
          "indexed": true,
          "internalType": "address",
          "name": "owner",
          "type": "address"
        },
        {
          "indexed": true,
          "internalType": "address",
          "name": "approved",
          "type": "address"
        },
        {
          "indexed": true,
          "internalType": "uint256",
          "name": "tokenId",
          "type": "uint256"
        }
      ],
      "name": "Approval",
      "type": "event"
    },
    {
      "anonymous": false,
      "inputs": [
        {
          "indexed": true,
          "internalType": "address",
          "name": "owner",
          "type": "address"
        },
        {
          "indexed": true,
          "internalType": "address",
          "name": "operator",
          "type": "address"
        },
        {
          "indexed": false,
          "internalType": "bool",
          "name": "approved",
          "type": "bool"
        }
      ],
      "name": "ApprovalForAll",
      "type": "event"
    },
    {
      "anonymous": false,
      "inputs": [
        {
          "indexed": false,
          "internalType": "address",
          "name": "owner",
          "type": "address"
        },
        {
          "indexed": false,
          "internalType": "uint256",
          "name": "kittenId",
          "type": "uint256"
        },
        {
          "indexed": false,
          "internalType": "uint256",
          "name": "mumId",
          "type": "uint256"
        },
        {
          "indexed": false,
          "internalType": "uint256",
          "name": "dadId",
          "type": "uint256"
        },
        {
          "indexed": false,
          "internalType": "uint256",
          "name": "genes",
          "type": "uint256"
        }
      ],
      "name": "Birth",
      "type": "event"
    },
    {
      "anonymous": false,
      "inputs": [
        {
          "indexed": true,
          "internalType": "address",
          "name": "from",
          "type": "address"
        },
        {
          "indexed": true,
          "internalType": "address",
          "name": "to",
          "type": "address"
        },
        {
          "indexed": true,
          "internalType": "uint256",
          "name": "tokenId",
          "type": "uint256"
        }
      ],
      "name": "Transfer",
      "type": "event"
    },
    {
      "constant": true,
      "inputs": [],
      "name": "CREATION_LIMIT_GEN0",
      "outputs": [
        {
          "internalType": "uint256",
          "name": "",
          "type": "uint256"
        }
      ],
      "payable": false,
      "stateMutability": "view",
      "type": "function"
    },
    {
      "constant": true,
      "inputs": [],
      "name": "gen0Counter",
      "outputs": [
        {
          "internalType": "uint256",
          "name": "",
          "type": "uint256"
        }
      ],
      "payable": false,
      "stateMutability": "view",
      "type": "function"
    },
    {
      "constant": true,
      "inputs": [
        {
          "internalType": "uint256",
          "name": "",
          "type": "uint256"
        }
      ],
      "name": "kittyIndexToApproved",
      "outputs": [
        {
          "internalType": "address",
          "name": "",
          "type": "address"
        }
      ],
      "payable": false,
      "stateMutability": "view",
      "type": "function"
    },
    {
      "constant": true,
      "inputs": [
        {
          "internalType": "uint256",
          "name": "",
          "type": "uint256"
        }
      ],
      "name": "kittyIndexToOwner",
      "outputs": [
        {
          "internalType": "address",
          "name": "",
          "type": "address"
        }
      ],
      "payable": false,
      "stateMutability": "view",
      "type": "function"
    },
    {
      "constant": true,
      "inputs": [],
      "name": "name",
      "outputs": [
        {
          "internalType": "string",
          "name": "",
          "type": "string"
        }
      ],
      "payable": false,
      "stateMutability": "view",
      "type": "function"
    },
    {
      "constant": true,
      "inputs": [],
      "name": "owner",
      "outputs": [
        {
          "internalType": "address",
          "name": "",
          "type": "address"
        }
      ],
      "payable": false,
      "stateMutability": "view",
      "type": "function"
    },
    {
      "constant": true,
      "inputs": [],
      "name": "symbol",
      "outputs": [
        {
          "internalType": "string",
          "name": "",
          "type": "string"
        }
      ],
      "payable": false,
      "stateMutability": "view",
      "type": "function"
    },
    {
      "constant": false,
      "inputs": [
        {
          "internalType": "uint256",
          "name": "_dadId",
          "type": "uint256"
        },
        {
          "internalType": "uint256",
          "name": "_mumId",
          "type": "uint256"
        }
      ],
      "name": "breed",
      "outputs": [
        {
          "internalType": "uint256",
          "name": "",
          "type": "uint256"
        }
      ],
      "payable": false,
      "stateMutability": "nonpayable",
      "type": "function"
    },
    {
      "constant": true,
      "inputs": [
        {
          "internalType": "bytes4",
          "name": "_interfaceId",
          "type": "bytes4"
        }
      ],
      "name": "supportsInterface",
      "outputs": [
        {
          "internalType": "bool",
          "name": "",
          "type": "bool"
        }
      ],
      "payable": false,
      "stateMutability": "view",
      "type": "function"
    },
    {
      "constant": false,
      "inputs": [
        {
          "internalType": "address",
          "name": "_from",
          "type": "address"
        },
        {
          "internalType": "address",
          "name": "_to",
          "type": "address"
        },
        {
          "internalType": "uint256",
          "name": "_tokenId",
          "type": "uint256"
        }
      ],
      "name": "transferFrom",
      "outputs": [],
      "payable": false,
      "stateMutability": "nonpayable",
      "type": "function"
    },
    {
      "constant": false,
      "inputs": [
        {
          "internalType": "address",
          "name": "_to",
          "type": "address"
        },
        {
          "internalType": "uint256",
          "name": "_tokenId",
          "type": "uint256"
        }
      ],
      "name": "approve",
      "outputs": [],
      "payable": false,
      "stateMutability": "nonpayable",
      "type": "function"
    },
    {
      "constant": false,
      "inputs": [
        {
          "internalType": "address",
          "name": "operator",
          "type": "address"
        },
        {
          "internalType": "bool",
          "name": "approved",
          "type": "bool"
        }
      ],
      "name": "setApprovalForAll",
      "outputs": [],
      "payable": false,
      "stateMutability": "nonpayable",
      "type": "function"
    },
    {
      "constant": true,
      "inputs": [
        {
          "internalType": "uint256",
          "name": "tokenId",
          "type": "uint256"
        }
      ],
      "name": "getApproved",
      "outputs": [
        {
          "internalType": "address",
          "name": "",
          "type": "address"
        }
      ],
      "payable": false,
      "stateMutability": "view",
      "type": "function"
    },
    {
      "constant": true,
      "inputs": [
        {
          "internalType": "address",
          "name": "_owner",
          "type": "address"
        }
      ],
      "name": "getKittyByOwner",
      "outputs": [
        {
          "internalType": "uint256[]",
          "name": "",
          "type": "uint256[]"
        }
      ],
      "payable": false,
      "stateMutability": "view",
      "type": "function"
    },
    {
      "constant": true,
      "inputs": [
        {
          "internalType": "uint256",
          "name": "_id",
          "type": "uint256"
        }
      ],
      "name": "getKitty",
      "outputs": [
        {
          "internalType": "uint256",
          "name": "genes",
          "type": "uint256"
        },
        {
          "internalType": "uint256",
          "name": "birthTime",
          "type": "uint256"
        },
        {
          "internalType": "uint256",
          "name": "mumId",
          "type": "uint256"
        },
        {
          "internalType": "uint256",
          "name": "dadId",
          "type": "uint256"
        },
        {
          "internalType": "uint256",
          "name": "generation",
          "type": "uint256"
        }
      ],
      "payable": false,
      "stateMutability": "view",
      "type": "function"
    },
    {
      "constant": false,
      "inputs": [
        {
          "internalType": "uint256",
          "name": "_genes",
          "type": "uint256"
        }
      ],
      "name": "createKittyGen0",
      "outputs": [
        {
          "internalType": "uint256",
          "name": "",
          "type": "uint256"
        }
      ],
      "payable": false,
      "stateMutability": "nonpayable",
      "type": "function"
    },
    {
      "constant": true,
      "inputs": [
        {
          "internalType": "address",
          "name": "owner",
          "type": "address"
        }
      ],
      "name": "balanceOf",
      "outputs": [
        {
          "internalType": "uint256",
          "name": "balance",
          "type": "uint256"
        }
      ],
      "payable": false,
      "stateMutability": "view",
      "type": "function"
    },
    {
      "constant": true,
      "inputs": [],
      "name": "totalSupply",
      "outputs": [
        {
          "internalType": "uint256",
          "name": "total",
          "type": "uint256"
        }
      ],
      "payable": false,
      "stateMutability": "view",
      "type": "function"
    },
    {
      "constant": true,
      "inputs": [
        {
          "internalType": "uint256",
          "name": "tokenId",
          "type": "uint256"
        }
      ],
      "name": "ownerOf",
      "outputs": [
        {
          "internalType": "address",
          "name": "owner",
          "type": "address"
        }
      ],
      "payable": false,
      "stateMutability": "view",
      "type": "function"
    },
    {
      "constant": false,
      "inputs": [
        {
          "internalType": "address",
          "name": "to",
          "type": "address"
        },
        {
          "internalType": "uint256",
          "name": "tokenId",
          "type": "uint256"
        }
      ],
      "name": "transfer",
      "outputs": [],
      "payable": false,
      "stateMutability": "nonpayable",
      "type": "function"
    },
    {
      "constant": true,
      "inputs": [
        {
          "internalType": "address",
          "name": "owner",
          "type": "address"
        },
        {
          "internalType": "address",
          "name": "operator",
          "type": "address"
        }
      ],
      "name": "isApprovedForAll",
      "outputs": [
        {
          "internalType": "bool",
          "name": "",
          "type": "bool"
        }
      ],
      "payable": false,
      "stateMutability": "view",
      "type": "function"
    },
    {
      "constant": false,
      "inputs": [
        {
          "internalType": "address",
          "name": "_from",
          "type": "address"
        },
        {
          "internalType": "address",
          "name": "_to",
          "type": "address"
        },
        {
          "internalType": "uint256",
          "name": "_tokenId",
          "type": "uint256"
        }
      ],
      "name": "safeTransferFrom",
      "outputs": [],
      "payable": false,
      "stateMutability": "nonpayable",
      "type": "function"
    },
    {
      "constant": false,
      "inputs": [
        {
          "internalType": "address",
          "name": "_from",
          "type": "address"
        },
        {
          "internalType": "address",
          "name": "_to",
          "type": "address"
        },
        {
          "internalType": "uint256",
          "name": "_tokenId",
          "type": "uint256"
        },
        {
          "internalType": "bytes",
          "name": "_data",
          "type": "bytes"
        }
      ],
      "name": "safeTransferFrom",
      "outputs": [],
      "payable": false,
      "stateMutability": "nonpayable",
      "type": "function"
    }
  ],
  "bytecode": "0x60806040523480156200001157600080fd5b50336000806101000a81548173ffffffffffffffffffffffffffffffffffffffff021916908373ffffffffffffffffffffffffffffffffffffffff1602179055506200008a60008060007fffffffffffffffffffffffffffffffffffffffffffffffffffffffffffffffff60006200009160201b60201c565b506200046b565b60006200009d62000422565b6040518060a001604052808581526020014267ffffffffffffffff1681526020018863ffffffff1681526020018763ffffffff1681526020018661ffff168152509050600060018083908060018154018082558091505090600182039060005260206000209060020201600090919290919091506000820151816000015560208201518160010160006101000a81548167ffffffffffffffff021916908367ffffffffffffffff16021790555060408201518160010160086101000a81548163ffffffff021916908363ffffffff160217905550606082015181600101600c6101000a81548163ffffffff021916908363ffffffff16021790555060808201518160010160106101000a81548161ffff021916908361ffff16021790555050500390507f0a5311bd2a6608f08a180df2ee7c5946819a649b204b554bb8e39825b2c50ad584828a8a89604051808673ffffffffffffffffffffffffffffffffffffffff1673ffffffffffffffffffffffffffffffffffffffff1681526020018581526020018481526020018381526020018281526020019550505050505060405180910390a162000257600085836200026560201b60201c565b809250505095945050505050565b600360008373ffffffffffffffffffffffffffffffffffffffff1673ffffffffffffffffffffffffffffffffffffffff16815260200190815260200160002060008154809291906001019190505550816002600083815260200190815260200160002060006101000a81548173ffffffffffffffffffffffffffffffffffffffff021916908373ffffffffffffffffffffffffffffffffffffffff160217905550600073ffffffffffffffffffffffffffffffffffffffff168373ffffffffffffffffffffffffffffffffffffffff1614620003c257600360008473ffffffffffffffffffffffffffffffffffffffff1673ffffffffffffffffffffffffffffffffffffffff16815260200190815260200160002060008154809291906001900391905055506004600082815260200190815260200160002060006101000a81549073ffffffffffffffffffffffffffffffffffffffff02191690555b808273ffffffffffffffffffffffffffffffffffffffff168473ffffffffffffffffffffffffffffffffffffffff167fddf252ad1be2c89b69c2b068fc378daa952ba7f163c4a11628f55a4df523b3ef60405160405180910390a4505050565b6040518060a0016040528060008152602001600067ffffffffffffffff168152602001600063ffffffff168152602001600063ffffffff168152602001600061ffff1681525090565b611e06806200047b6000396000f3fe608060405234801561001057600080fd5b506004361061014d5760003560e01c806395d89b41116100c3578063b88d4fde1161007c578063b88d4fde146107b4578063d5a776ca146108b9578063d9ecad7b146108fb578063e985e9c514610947578063e98b7f4d146109c3578063ef5e94aa14610a215761014d565b806395d89b411461056e57806395e6c62f146105f1578063a22cb4651461068a578063a45f4bfc146106da578063a9059cbb14610748578063b4834330146107965761014d565b806323b872dd1161011557806323b872dd1461031457806342842e0e14610382578063481af3d3146103f05780636352211e1461045e57806370a08231146104cc5780638da5cb5b146105245761014d565b806301ffc9a71461015257806306fdde03146101b7578063081812fc1461023a578063095ea7b3146102a857806318160ddd146102f6575b600080fd5b61019d6004803603602081101561016857600080fd5b8101908080357bffffffffffffffffffffffffffffffffffffffffffffffffffffffff19169060200190929190505050610a3f565b604051808215151515815260200191505060405180910390f35b6101bf610adf565b6040518080602001828103825283818151815260200191508051906020019080838360005b838110156101ff5780820151818401526020810190506101e4565b50505050905090810190601f16801561022c5780820380516001836020036101000a031916815260200191505b509250505060405180910390f35b6102666004803603602081101561025057600080fd5b8101908080359060200190929190505050610b18565b604051808273ffffffffffffffffffffffffffffffffffffffff1673ffffffffffffffffffffffffffffffffffffffff16815260200191505060405180910390f35b6102f4600480360360408110156102be57600080fd5b81019080803573ffffffffffffffffffffffffffffffffffffffff16906020019092919080359060200190929190505050610b66565b005b6102fe610be2565b6040518082815260200191505060405180910390f35b6103806004803603606081101561032a57600080fd5b81019080803573ffffffffffffffffffffffffffffffffffffffff169060200190929190803573ffffffffffffffffffffffffffffffffffffffff16906020019092919080359060200190929190505050610bef565b005b6103ee6004803603606081101561039857600080fd5b81019080803573ffffffffffffffffffffffffffffffffffffffff169060200190929190803573ffffffffffffffffffffffffffffffffffffffff16906020019092919080359060200190929190505050610cb7565b005b61041c6004803603602081101561040657600080fd5b8101908080359060200190929190505050610cd7565b604051808273ffffffffffffffffffffffffffffffffffffffff1673ffffffffffffffffffffffffffffffffffffffff16815260200191505060405180910390f35b61048a6004803603602081101561047457600080fd5b8101908080359060200190929190505050610d0a565b604051808273ffffffffffffffffffffffffffffffffffffffff1673ffffffffffffffffffffffffffffffffffffffff16815260200191505060405180910390f35b61050e600480360360208110156104e257600080fd5b81019080803573ffffffffffffffffffffffffffffffffffffffff169060200190929190505050610d47565b6040518082815260200191505060405180910390f35b61052c610d90565b604051808273ffffffffffffffffffffffffffffffffffffffff1673ffffffffffffffffffffffffffffffffffffffff16815260200191505060405180910390f35b610576610db5565b6040518080602001828103825283818151815260200191508051906020019080838360005b838110156105b657808201518184015260208101905061059b565b50505050905090810190601f1680156105e35780820380516001836020036101000a031916815260200191505b509250505060405180910390f35b6106336004803603602081101561060757600080fd5b81019080803573ffffffffffffffffffffffffffffffffffffffff169060200190929190505050610dee565b6040518080602001828103825283818151815260200191508051906020019060200280838360005b8381101561067657808201518184015260208101905061065b565b505050509050019250505060405180910390f35b6106d8600480360360408110156106a057600080fd5b81019080803573ffffffffffffffffffffffffffffffffffffffff169060200190929190803515159060200190929190505050610f1b565b005b610706600480360360208110156106f057600080fd5b8101908080359060200190929190505050611055565b604051808273ffffffffffffffffffffffffffffffffffffffff1673ffffffffffffffffffffffffffffffffffffffff16815260200191505060405180910390f35b6107946004803603604081101561075e57600080fd5b81019080803573ffffffffffffffffffffffffffffffffffffffff16906020019092919080359060200190929190505050611088565b005b61079e61111d565b6040518082815260200191505060405180910390f35b6108b7600480360360808110156107ca57600080fd5b81019080803573ffffffffffffffffffffffffffffffffffffffff169060200190929190803573ffffffffffffffffffffffffffffffffffffffff169060200190929190803590602001909291908035906020019064010000000081111561083157600080fd5b82018360208201111561084357600080fd5b8035906020019184600183028401116401000000008311171561086557600080fd5b91908080601f016020809104026020016040519081016040528093929190818152602001838380828437600081840152601f19601f820116905080830192505050505050509192919290505050611122565b005b6108e5600480360360208110156108cf57600080fd5b8101908080359060200190929190505050611149565b6040518082815260200191505060405180910390f35b6109316004803603604081101561091157600080fd5b8101908080359060200190929190803590602001909291905050506111db565b6040518082815260200191505060405180910390f35b6109a96004803603604081101561095d57600080fd5b81019080803573ffffffffffffffffffffffffffffffffffffffff169060200190929190803573ffffffffffffffffffffffffffffffffffffffff169060200190929190505050611357565b604051808215151515815260200191505060405180910390f35b6109ef600480360360208110156109d957600080fd5b81019080803590602001909291905050506113eb565b604051808681526020018581526020018481526020018381526020018281526020019550505050505060405180910390f35b610a2961149a565b6040518082815260200191505060405180910390f35b60006380ac58cd60e01b7bffffffffffffffffffffffffffffffffffffffffffffffffffffffff1916827bffffffffffffffffffffffffffffffffffffffffffffffffffffffff19161480610ad857506301ffc9a760e01b7bffffffffffffffffffffffffffffffffffffffffffffffffffffffff1916827bffffffffffffffffffffffffffffffffffffffffffffffffffffffff1916145b9050919050565b6040518060400160405280600a81526020017f436174734f66537461730000000000000000000000000000000000000000000081525081565b60006001805490508210610b2b57600080fd5b6004600083815260200190815260200160002060009054906101000a900473ffffffffffffffffffffffffffffffffffffffff169050919050565b610b7033826114a0565b610b7957600080fd5b610b83818361150c565b808273ffffffffffffffffffffffffffffffffffffffff163373ffffffffffffffffffffffffffffffffffffffff167f8c5be1e5ebec7d5bd14f71427d1e84f3dd0314c0f7b2291e5b200ac8c7c3b92560405160405180910390a45050565b6000600180549050905090565b600073ffffffffffffffffffffffffffffffffffffffff168273ffffffffffffffffffffffffffffffffffffffff161415610c2957600080fd5b8273ffffffffffffffffffffffffffffffffffffffff163373ffffffffffffffffffffffffffffffffffffffff161480610c695750610c683382611562565b5b80610c7a5750610c798333611357565b5b610c8357600080fd5b610c8d83826114a0565b610c9657600080fd5b6001805490508110610ca757600080fd5b610cb28383836115ce565b505050565b610cd283838360405180602001604052806000815250611122565b505050565b60046020528060005260406000206000915054906101000a900473ffffffffffffffffffffffffffffffffffffffff1681565b60006002600083815260200190815260200160002060009054906101000a900473ffffffffffffffffffffffffffffffffffffffff169050919050565b6000600360008373ffffffffffffffffffffffffffffffffffffffff1673ffffffffffffffffffffffffffffffffffffffff168152602001908152602001600020549050919050565b6000809054906101000a900473ffffffffffffffffffffffffffffffffffffffff1681565b6040518060400160405280600281526020017f435300000000000000000000000000000000000000000000000000000000000081525081565b606080600360008473ffffffffffffffffffffffffffffffffffffffff1673ffffffffffffffffffffffffffffffffffffffff16815260200190815260200160002054604051908082528060200260200182016040528015610e5f5781602001602082028038833980820191505090505b509050600080905060008090505b600180549050811015610f10578473ffffffffffffffffffffffffffffffffffffffff166002600083815260200190815260200160002060009054906101000a900473ffffffffffffffffffffffffffffffffffffffff1673ffffffffffffffffffffffffffffffffffffffff161415610f035780838381518110610eee57fe5b60200260200101818152505081806001019250505b8080600101915050610e6d565b508192505050919050565b3373ffffffffffffffffffffffffffffffffffffffff168273ffffffffffffffffffffffffffffffffffffffff161415610f5457600080fd5b80600560003373ffffffffffffffffffffffffffffffffffffffff1673ffffffffffffffffffffffffffffffffffffffff16815260200190815260200160002060008473ffffffffffffffffffffffffffffffffffffffff1673ffffffffffffffffffffffffffffffffffffffff16815260200190815260200160002060006101000a81548160ff0219169083151502179055508173ffffffffffffffffffffffffffffffffffffffff163373ffffffffffffffffffffffffffffffffffffffff167f17307eab39ab6107e8899845ad3d59bd9653f200f220920489ca2b5937696c3183604051808215151515815260200191505060405180910390a35050565b60026020528060005260406000206000915054906101000a900473ffffffffffffffffffffffffffffffffffffffff1681565b600073ffffffffffffffffffffffffffffffffffffffff168273ffffffffffffffffffffffffffffffffffffffff1614156110c257600080fd5b3073ffffffffffffffffffffffffffffffffffffffff168273ffffffffffffffffffffffffffffffffffffffff1614156110fb57600080fd5b61110533826114a0565b61110e57600080fd5b6111193383836115ce565b5050565b600a81565b61112e3385858561178a565b61113757600080fd5b61114384848484611845565b50505050565b60008060009054906101000a900473ffffffffffffffffffffffffffffffffffffffff1673ffffffffffffffffffffffffffffffffffffffff163373ffffffffffffffffffffffffffffffffffffffff16146111a457600080fd5b600a600654106111b357600080fd5b6006600081548092919060010191905055506111d46000806000853361186b565b9050919050565b60006111e733846114a0565b611259576040517f08c379a000000000000000000000000000000000000000000000000000000000815260040180806020018281038252601f8152602001807f546865207573657220646f65736e2774206f776e2074686520746f636b656e0081525060200191505060405180910390fd5b61126333836114a0565b6112d5576040517f08c379a000000000000000000000000000000000000000000000000000000000815260040180806020018281038252601f8152602001807f546865207573657220646f65736e2774206f776e2074686520746f636b656e0081525060200191505060405180910390fd5b6000806112e1846113eb565b945050505091506000806112f4876113eb565b945050505091506000809050838210156113135760018401905061132e565b838211156113265760018201905061132d565b6001820190505b5b600061133a8487611a35565b9050611349888a84843361186b565b965050505050505092915050565b6000600560008473ffffffffffffffffffffffffffffffffffffffff1673ffffffffffffffffffffffffffffffffffffffff16815260200190815260200160002060008373ffffffffffffffffffffffffffffffffffffffff1673ffffffffffffffffffffffffffffffffffffffff16815260200190815260200160002060009054906101000a900460ff16905092915050565b6000806000806000806001878154811061140157fe5b906000526020600020906002020190508060010160009054906101000a900467ffffffffffffffff1667ffffffffffffffff1694508060010160089054906101000a900463ffffffff1663ffffffff16935080600101600c9054906101000a900463ffffffff1663ffffffff1692508060010160109054906101000a900461ffff1661ffff169150806000015495505091939590929450565b60065481565b60008273ffffffffffffffffffffffffffffffffffffffff166002600084815260200190815260200160002060009054906101000a900473ffffffffffffffffffffffffffffffffffffffff1673ffffffffffffffffffffffffffffffffffffffff1614905092915050565b806004600084815260200190815260200160002060006101000a81548173ffffffffffffffffffffffffffffffffffffffff021916908373ffffffffffffffffffffffffffffffffffffffff1602179055505050565b60008273ffffffffffffffffffffffffffffffffffffffff166004600084815260200190815260200160002060009054906101000a900473ffffffffffffffffffffffffffffffffffffffff1673ffffffffffffffffffffffffffffffffffffffff1614905092915050565b600360008373ffffffffffffffffffffffffffffffffffffffff1673ffffffffffffffffffffffffffffffffffffffff16815260200190815260200160002060008154809291906001019190505550816002600083815260200190815260200160002060006101000a81548173ffffffffffffffffffffffffffffffffffffffff021916908373ffffffffffffffffffffffffffffffffffffffff160217905550600073ffffffffffffffffffffffffffffffffffffffff168373ffffffffffffffffffffffffffffffffffffffff161461172a57600360008473ffffffffffffffffffffffffffffffffffffffff1673ffffffffffffffffffffffffffffffffffffffff16815260200190815260200160002060008154809291906001900391905055506004600082815260200190815260200160002060006101000a81549073ffffffffffffffffffffffffffffffffffffffff02191690555b808273ffffffffffffffffffffffffffffffffffffffff168473ffffffffffffffffffffffffffffffffffffffff167fddf252ad1be2c89b69c2b068fc378daa952ba7f163c4a11628f55a4df523b3ef60405160405180910390a4505050565b6000600180549050821061179d57600080fd5b600073ffffffffffffffffffffffffffffffffffffffff168373ffffffffffffffffffffffffffffffffffffffff1614156117d757600080fd5b6117e184836114a0565b6117ea57600080fd5b8373ffffffffffffffffffffffffffffffffffffffff168573ffffffffffffffffffffffffffffffffffffffff16148061182a57506118298583611562565b5b8061183b575061183a8486611357565b5b9050949350505050565b6118508484846115ce565b61185c84848484611b39565b61186557600080fd5b50505050565b6000611875611d36565b6040518060a001604052808581526020014267ffffffffffffffff1681526020018863ffffffff1681526020018763ffffffff1681526020018661ffff168152509050600060018083908060018154018082558091505090600182039060005260206000209060020201600090919290919091506000820151816000015560208201518160010160006101000a81548167ffffffffffffffff021916908367ffffffffffffffff16021790555060408201518160010160086101000a81548163ffffffff021916908363ffffffff160217905550606082015181600101600c6101000a81548163ffffffff021916908363ffffffff16021790555060808201518160010160106101000a81548161ffff021916908361ffff16021790555050500390507f0a5311bd2a6608f08a180df2ee7c5946819a649b204b554bb8e39825b2c50ad584828a8a89604051808673ffffffffffffffffffffffffffffffffffffffff1673ffffffffffffffffffffffffffffffffffffffff1681526020018581526020018481526020018381526020018281526020019550505050505060405180910390a1611a27600085836115ce565b809250505095945050505050565b6000611a3f611d7f565b600060ff4281611a4b57fe5b069050600060019050600060079050600191505b60808211611aeb576000828460ff161614611a9c5760648681611a7e57fe5b0660ff16848260088110611a8e57fe5b602002018181525050611ac0565b60648781611aa657fe5b0660ff16848260088110611ab657fe5b6020020181815250505b60648681611aca57fe5b04955060648781611ad757fe5b049650600181039050600282029150611a5f565b60008092505b6008831015611b2b57848360088110611b0657fe5b60200201518101905060078314611b1e576064810290505b8280600101935050611af1565b809550505050505092915050565b6000611b4484611d1d565b611b515760019050611d15565b60008473ffffffffffffffffffffffffffffffffffffffff1663c3d7027a338887876040518563ffffffff1660e01b8152600401808573ffffffffffffffffffffffffffffffffffffffff1673ffffffffffffffffffffffffffffffffffffffff1681526020018473ffffffffffffffffffffffffffffffffffffffff1673ffffffffffffffffffffffffffffffffffffffff16815260200183815260200180602001828103825283818151815260200191508051906020019080838360005b83811015611c2c578082015181840152602081019050611c11565b50505050905090810190601f168015611c595780820380516001836020036101000a031916815260200191505b5095505050505050602060405180830381600087803b158015611c7b57600080fd5b505af1158015611c8f573d6000803e3d6000fd5b505050506040513d6020811015611ca557600080fd5b810190808051906020019092919050505090506040518080611da3602f9139602f01905060405180910390207bffffffffffffffffffffffffffffffffffffffffffffffffffffffff1916817bffffffffffffffffffffffffffffffffffffffffffffffffffffffff1916149150505b949350505050565b600080823b905060008163ffffffff1611915050919050565b6040518060a0016040528060008152602001600067ffffffffffffffff168152602001600063ffffffff168152602001600063ffffffff168152602001600061ffff1681525090565b60405180610100016040528060089060208202803883398082019150509050509056fe6f6e455243373231526563656976656428616464726573732c616464726573732c75696e743235362c627974657329a265627a7a7231582026f36fde0d9657c75bd13719fc1a042a6528955bb7f7ef29643f298d9fd9d74564736f6c63430005100032",
  "source": "pragma solidity ^0.5.12;\r\n\r\nimport \"./IERC721.sol\";\r\nimport \"./IERC721Receiver.sol\";\r\nimport \"./Ownable.sol\";\r\n\r\ncontract Kittycontract is IERC721, Ownable {\r\n    uint256 public constant CREATION_LIMIT_GEN0 = 10;\r\n    string public constant name = \"CatsOfStas\";\r\n    string public constant symbol = \"CS\";\r\n    bytes4 internal constant MAGIC_ERC721_RECEIVED = bytes4(\r\n        keccak256(\"onERC721Received(address,address,uint256,bytes)\")\r\n    );\r\n\r\n    bytes4 private constant _INTERFACE_ID_ERC721 = 0x80ac58cd;\r\n    bytes4 private constant _INTERFACE_ID_ERC165 = 0x01ffc9a7;\r\n\r\n    event Birth(\r\n        address owner,\r\n        uint256 kittenId,\r\n        uint256 mumId,\r\n        uint256 dadId,\r\n        uint256 genes\r\n    );\r\n\r\n    struct Kitty {\r\n        uint256 genes;\r\n        uint64 birthTime;\r\n        uint32 mumId;\r\n        uint32 dadId;\r\n        uint16 generation;\r\n    }\r\n\r\n    Kitty[] kitties;\r\n    mapping(uint256 => address) public kittyIndexToOwner;\r\n    mapping(address => uint256) ownershipTokenCount;\r\n    mapping(uint256 => address) public kittyIndexToApproved;\r\n\r\n    //  MYADDR =>OPERATORADDRESS=>TRUE/FALSE\r\n    mapping(address => mapping(address => bool)) private _operatorApprovals;\r\n\r\n    uint256 public gen0Counter;\r\n\r\n    constructor() public {\r\n        _createKitty(0, 0, 0, uint256(-1), address(0));\r\n    }\r\n\r\n    function breed(uint256 _dadId, uint256 _mumId) public returns (uint256) {\r\n        require(_owns(msg.sender, _dadId), \"The user doesn't own the tocken\");\r\n        require(_owns(msg.sender, _mumId), \"The user doesn't own the tocken\");\r\n        (uint256 mumDna, , , , uint256 momGeneration) = getKitty(_mumId);\r\n        (uint256 dadDna, , , , uint256 dadGeneration) = getKitty(_dadId);\r\n\r\n        uint256 kidGen = 0;\r\n        if (dadGeneration < momGeneration) {\r\n            kidGen = momGeneration + 1;\r\n        } else if (dadGeneration > momGeneration) {\r\n            kidGen = dadGeneration + 1;\r\n        } else {\r\n            kidGen = dadGeneration + 1;\r\n        }\r\n\r\n        uint256 newDna = _mixDna(dadDna, mumDna);\r\n        return _createKitty(_mumId, _dadId, kidGen, newDna, msg.sender);\r\n    }\r\n\r\n    function supportsInterface(bytes4 _interfaceId)\r\n        external\r\n        view\r\n        returns (bool)\r\n    {\r\n        return (_interfaceId == _INTERFACE_ID_ERC721 ||\r\n            _interfaceId == _INTERFACE_ID_ERC165);\r\n    }\r\n\r\n    function _safeTransfer(\r\n        address _from,\r\n        address _to,\r\n        uint256 _tokenId,\r\n        bytes memory _data\r\n    ) internal {\r\n        _transfer(_from, _to, _tokenId);\r\n        require(_checkERC721Support(_from, _to, _tokenId, _data));\r\n    }\r\n\r\n    function transferFrom(\r\n        address _from,\r\n        address _to,\r\n        uint256 _tokenId\r\n    ) public {\r\n        require(_to != address(0));\r\n        require(\r\n            msg.sender == _from ||\r\n                _approvedFor(msg.sender, _tokenId) ||\r\n                isApprovedForAll(_from, msg.sender)\r\n        );\r\n        require(_owns(_from, _tokenId));\r\n        require(_tokenId < kitties.length);\r\n        _transfer(_from, _to, _tokenId);\r\n    }\r\n\r\n    function approve(address _to, uint256 _tokenId) public {\r\n        require(_owns(msg.sender, _tokenId));\r\n        _approve(_tokenId, _to);\r\n\r\n        emit Approval(msg.sender, _to, _tokenId);\r\n    }\r\n\r\n    function setApprovalForAll(address operator, bool approved) public {\r\n        require(operator != msg.sender);\r\n\r\n        _operatorApprovals[msg.sender][operator] = approved;\r\n        emit ApprovalForAll(msg.sender, operator, approved);\r\n    }\r\n\r\n    function getApproved(uint256 tokenId) public view returns (address) {\r\n        require(tokenId < kitties.length); // Token must exist\r\n\r\n        return kittyIndexToApproved[tokenId];\r\n    }\r\n\r\n    // This gives us an array of Id's that the adddress owns\r\n    function getKittyByOwner(address _owner)\r\n        external\r\n        view\r\n        returns (uint256[] memory)\r\n    {\r\n        uint256[] memory result = new uint256[](ownershipTokenCount[_owner]);\r\n        uint256 counter = 0;\r\n        for (uint256 i = 0; i < kitties.length; i++) {\r\n            if (kittyIndexToOwner[i] == _owner) {\r\n                result[counter] = i;\r\n                counter++;\r\n            }\r\n        }\r\n        return result;\r\n    }\r\n\r\n    function getKitty(uint256 _id)\r\n        public\r\n        view\r\n        returns (\r\n            uint256 genes,\r\n            uint256 birthTime,\r\n            uint256 mumId,\r\n            uint256 dadId,\r\n            uint256 generation\r\n        )\r\n    {\r\n        Kitty storage kitty = kitties[_id];\r\n\r\n        birthTime = uint256(kitty.birthTime);\r\n        mumId = uint256(kitty.mumId);\r\n        dadId = uint256(kitty.dadId);\r\n        generation = uint256(kitty.generation);\r\n        genes = kitty.genes;\r\n    }\r\n\r\n    function createKittyGen0(uint256 _genes)\r\n        public\r\n        onlyOwner\r\n        returns (uint256)\r\n    {\r\n        require(gen0Counter < CREATION_LIMIT_GEN0);\r\n\r\n        gen0Counter++;\r\n\r\n        return _createKitty(0, 0, 0, _genes, msg.sender);\r\n    }\r\n\r\n    function _createKitty(\r\n        uint256 _mumId,\r\n        uint256 _dadId,\r\n        uint256 _generation,\r\n        uint256 _genes,\r\n        address _owner\r\n    ) private returns (uint256) {\r\n        Kitty memory _kitty = Kitty({\r\n            genes: _genes,\r\n            birthTime: uint64(now),\r\n            mumId: uint32(_mumId),\r\n            dadId: uint32(_dadId),\r\n            generation: uint16(_generation)\r\n        });\r\n\r\n        uint256 newKittenId = kitties.push(_kitty) - 1;\r\n\r\n        emit Birth(_owner, newKittenId, _mumId, _dadId, _genes);\r\n\r\n        _transfer(address(0), _owner, newKittenId);\r\n\r\n        return newKittenId;\r\n    }\r\n\r\n    function balanceOf(address owner) external view returns (uint256 balance) {\r\n        return ownershipTokenCount[owner];\r\n    }\r\n\r\n    function totalSupply() external view returns (uint256 total) {\r\n        return kitties.length;\r\n    }\r\n\r\n    function ownerOf(uint256 tokenId) external view returns (address owner) {\r\n        return kittyIndexToOwner[tokenId];\r\n    }\r\n\r\n    function transfer(address to, uint256 tokenId) external {\r\n        require(to != address(0));\r\n        require(to != address(this));\r\n        require(_owns(msg.sender, tokenId));\r\n\r\n        _transfer(msg.sender, to, tokenId);\r\n    }\r\n\r\n    function _transfer(\r\n        address _from,\r\n        address _to,\r\n        uint256 _tokenId\r\n    ) internal {\r\n        ownershipTokenCount[_to]++;\r\n        kittyIndexToOwner[_tokenId] = _to;\r\n\r\n        if (_from != address(0)) {\r\n            ownershipTokenCount[_from]--;\r\n            delete kittyIndexToApproved[_tokenId];\r\n        }\r\n\r\n        emit Transfer(_from, _to, _tokenId);\r\n    }\r\n\r\n    function _owns(address _claimant, uint256 _tokenId)\r\n        internal\r\n        view\r\n        returns (bool)\r\n    {\r\n        return kittyIndexToOwner[_tokenId] == _claimant;\r\n    }\r\n\r\n    function _approve(uint256 _tokenId, address _approved) internal {\r\n        kittyIndexToApproved[_tokenId] = _approved;\r\n    }\r\n\r\n    function _approvedFor(address _claimant, uint256 _tokenId)\r\n        internal\r\n        view\r\n        returns (bool)\r\n    {\r\n        return kittyIndexToApproved[_tokenId] == _claimant;\r\n    }\r\n\r\n    function isApprovedForAll(address owner, address operator)\r\n        public\r\n        view\r\n        returns (bool)\r\n    {\r\n        return _operatorApprovals[owner][operator];\r\n    }\r\n\r\n    function _checkERC721Support(\r\n        address _from,\r\n        address _to,\r\n        uint256 _tokenId,\r\n        bytes memory _data\r\n    ) internal returns (bool) {\r\n        if (!_isContract(_to)) {\r\n            return true;\r\n        }\r\n        //call onERC721Received in the _to contract\r\n        bytes4 returnData = IERC721Receiver(_to).onIERC721Received(\r\n            msg.sender,\r\n            _from,\r\n            _tokenId,\r\n            _data\r\n        );\r\n        return returnData == MAGIC_ERC721_RECEIVED;\r\n\r\n        //check return value\r\n    }\r\n\r\n    function _isContract(address _to) internal view returns (bool) {\r\n        uint32 size;\r\n        assembly {\r\n            size := extcodesize(_to)\r\n        }\r\n        return size > 0;\r\n    }\r\n\r\n    function safeTransferFrom(\r\n        address _from,\r\n        address _to,\r\n        uint256 _tokenId\r\n    ) external {\r\n        safeTransferFrom(_from, _to, _tokenId, \"\");\r\n    }\r\n\r\n    function safeTransferFrom(\r\n        address _from,\r\n        address _to,\r\n        uint256 _tokenId,\r\n        bytes memory _data\r\n    ) public {\r\n        require(_isApprovedOrOwner(msg.sender, _from, _to, _tokenId));\r\n        _safeTransfer(_from, _to, _tokenId, _data);\r\n    }\r\n\r\n    function _isApprovedOrOwner(\r\n        address _spender,\r\n        address _from,\r\n        address _to,\r\n        uint256 _tokenId\r\n    ) internal view returns (bool) {\r\n        require(_tokenId < kitties.length); //token must exist\r\n        require(_to != address(0)); // _to address is not zero address\r\n        require(_owns(_from, _tokenId)); //from owns the token\r\n        //spender is from OR spender is approved for tokenID OR spender is operator for from\r\n        return (_spender == _from ||\r\n            _approvedFor(_spender, _tokenId) ||\r\n            isApprovedForAll(_from, _spender));\r\n    }\r\n\r\n    function _mixDna(uint256 _dadDna, uint256 _mumDna)\r\n        internal\r\n        returns (uint256)\r\n    {\r\n        uint256[8] memory geneArray;\r\n        uint8 random = uint8(now % 255); // 0-255 binary between  00000000-11111111\r\n        uint256 i = 1; // random number 11001011\r\n        uint256 index = 7;\r\n        for (i = 1; i <= 128; i = i * 2) {\r\n            if (random & i != 0) {\r\n                geneArray[index] = uint8(_mumDna % 100);\r\n            } else {\r\n                geneArray[index] = uint8(_dadDna % 100);\r\n            }\r\n            _mumDna = _mumDna / 100;\r\n            _dadDna = _dadDna / 100;\r\n            index = index - 1;\r\n            // 1, 2, 4, 8, 16, 32, 64, 128\r\n\r\n            // 00000001-1\r\n            // 00000010-2\r\n            // 00000100-4\r\n            // 00001000-8\r\n            // 00010000-16\r\n            // 00100000-32\r\n            // 01000000-64\r\n            // 10000000-128\r\n        }\r\n\r\n        uint256 newGene;\r\n        // [11, 22, 33, 44, 55, 66, 77, 88]\r\n        for (i = 0; i < 8; i++) {\r\n            newGene = newGene + geneArray[i];\r\n            if (i != 7) {\r\n                newGene = newGene * 100;\r\n            }\r\n        }\r\n        return newGene;\r\n    }\r\n}\r\n",
  "sourcePath": "C:\\Users\\Owner\\Desktop\\academy-kitties-template\\contracts\\Kittycontract.sol",
  "compiler": {
    "name": "solc",
    "version": "0.5.16+commit.9c3226ce.Emscripten.clang"
  },
  "schemaVersion": "3.2.0",
  "updatedAt": "2020-11-05T22:12:27.976Z",
  "networkType": "ethereum",
  "devdoc": {
    "methods": {}
  },
  "userdoc": {
    "methods": {}
  }
}